:04000000020049327F
:03000B000200FBF5
:0100130032BA
:01001B0032B2
:0100230032AA
:01002B0032A2
:01003300329A
:01003B003292
:030043000200BCFC
:0300B900020046FC
:0300460002013A7A
:2000BC00C021C0E0C0F0C082C083C007C006C005C004C003C002C001C000C0D075D000126B
:2000DC0004C6D0D0D000D001D002D003D004D005D006D007D083D082D0F0D0E0D02132C006
:2000FC0021C0E0C0F0C082C083C007C006C005C004C003C002C001C000C0D075D0001201EA
:20011C0090D0D0D000D001D002D003D004D005D006D007D083D082D0F0D0E0D021321201AC
:11013C007E1201A812073E120EE7D2AF120F1D80FBE1
:20014D00AE82AF83EE4F6011E5C330E7FBE5C320E7FB1EBEFF011F80EB22C2A9781B868290
:20016D00088683D2A92275A15575A1AA2275A1002275A15575A1AA74F855B94406F5B9752D
:20018D00A10022758A30758CF8781B8606088607781B74012EF6E43F08F622758A30758C14
:0F01AD00F8758901781BE4F608F6D2A9D28C22E6
:1801BC0075E200C2AF90000112014D02380075A15575A1AA43B11022E7
:2001D400D295D296227F10EF6004001F80F922C2951201D9A294B39200E433F53E7582007F
:2001F400120E8DA297B39200E433F53E758202120E8DD295C2961201D9A294B39200E43393
:1A021400F53E758201120E8DA297B39200E433F53E758203120E8DD29622FF
:201F850006010000190100001B0100004C05000000000001000000020400000005000000A2
:201FA5000700000008000000FFFFFFFF00C830E024000000250000002100000022000000AD
:201FC5002C000100FFFFFFFF012C01000000E9330000E92D0000F12D0000002A00010045E5
:021FE5000203F5
:20022E009000FBE024F750067E087F0080089000FBE0FDFE7F008EDDE5DD602B85085F8539
:20024E00096075618085DD627563009000DD75F000121E779000FBE0C395DDF0E5DD25083D
:20026E00F508E43509F5092275DCC09000FBE4F09000DE75F000121F2DFF24F45003020420
:20028E0032EF240A83F582EF241083F583E473707D32EC323DB532634E320E03030403042F
:2002AE00030204030304049000E075F000121F2DFFBF0102800ABF02028013BF2249801C7F
:2002CE009000FB7412F07508E775091F80399000FB743BF07508F975091F802B9000E17587
:2002EE00F000121F2DFF6005BF011C800E9000FB742DF0750834750920800C9000FB7415C9
:20030E00F07508617509209000FBE070030204329000E375F000121F2DFF9000FBE0FEC3EC
:20032E00EF9E50059000FBEFF043D10202022E9000DF75F000121F2D9000FBF053D1FD222B
:20034E00E5E3547FFF9000DF75F000121F2D0354804FF5E322E5E32354019000DDF075DDB4
:20036E0001229000DDE4F09000DEF075DD02229000DDE0FFBFA10280030204329000E175E8
:20038E00F000121F2DFF6008BF0102802A0204327F00BF0800501CEF24DDFDE43400FEEF52
:2003AE0024E7F582E43400F583E0FC8D828E83F00F80DF75DD08227F00BF0800501CEF2482
:2003CE00DDFDE43400FEEF24F1F582E43400F583E0FC8D828E83F00F80DF75DD08229000AE
:2003EE00DDE0FFBFA13E9000E175F000121F2DFF60028030A201E4339000DDF075DD0122C4
:20040E009000DDE0FFBF211C9000E175F000121F2DFF6002800E9000DF75F000121F2D240D
:20042E00FF92012243DC0F229000FBE0700122E5D130E10712022E63DC4022748055E3FFD0
:20044E009000FBE04FF5E32222AF82C2EAEF24E7F582E43400F583E0FFD2EA8F8222AF82DB
:20046E00C2EAEF24E7F582E43400F583E50AF0D2EA02048253D2FC2253D2FCE5D230E1FB77
:20048E002274FC55D24402F5D222AF82C2EAEF75F002A424F1F582740035F0F583E55FF0BE
:2004AE00E560A3F0D2EA53D4FCE5D430E1FB2274FC55D44402F5D42220D90302071B75DD54
:2004CE0000E5D9540FFFADD95305307E00BD0006BE0003020719BD2006BE00030206D6BD7D
:2004EE003005BE00028003020719EF600302071975DCC09000FBE4F09000DE75F000121F6C
:20050E002DFE24F450030206D1EE240A83F582EE241083F583E4730413D186D1C83DD1F4CB
:20052E00DCD1AB0606060606050506050506069000E075F000121F2DFEBE0102800ABE02D5
:20054E00028013BE2249801C9000FB7412F07508E775091F80399000FB743BF07508F97563
:20056E00091F802B9000E175F000121F2DFE6005BE011C800E9000FB742DF075083475094F
:20058E0020800C9000FB7415F07508617509209000FBE070030206D19000E375F000121F61
:2005AE002DFE9000FBE0FDC3EE9D50059000FBEEF043D10212022E0207199000DF75F00040
:2005CE00121F2DFE9000FBF053D1FD020719E5E3547FFE9000DF75F000121F2D035480FD54
:2005EE004EF5E3020719E5E3235401FE9000DDF075DD010207199000DDE4F09000DEF07581
:20060E00DD020207199000DDE0FEBEA10280030206D19000E175F000121F2DFE6008BE016A
:20062E0002802C0206D17E00BE0800501CEE24DDFCE43400FDEE24E7F582E43400F583E095
:20064E00FB8C828D83F00E80DF75DD080207197E00BE0800501CEE24DDFCE43400FDEE24D8
:20066E00F1F582E43400F583E0FB8C828D83F00E80DF75DD080207199000DDE0FEBEA143B5
:20068E009000E175F000121F2DFE60028035A201E433FE9000DDF075DD010207199000DD0C
:2006AE00E0FEBE211E9000E175F000121F2DFE600280109000DF75F000121F2DFE24FF9248
:2006CE0001804843DC0F8043BF0002800ABF01028027BF0236802C9000FBE0602EE5D1301C
:2006EE00E10812022E63DC408021748055E3FF9000FBE0FE4FF5E3801274FC55D24402F582
:20070E00D2800874FC55D44402F5D4C2D930D8139000FBE4F0D20175DC0275E300C2DAC2D8
:20072E00D9C2D810DA0122E5DA20E20375D8FF2243E20653E2FD7F08EF60471FEF24DDF57B
:20074E0082E43400F583E4F0EF24E7F582E43400F583E4F08F057E00755F02F5608D828EF6
:20076E0083C007121F49AD82AE83D007ED2DFDEE33FEED24F1F582EE3400F583E4F0A3F0C0
:20078E0080B69000FBE4F0D20175E22975D18175DD0075ECDD75ED0075D30875EEE775EFAC
:1C07AE000075D21275EA4075D50875E4F175E50075D41A75EB0475E107D2EA223F
:201FE7001201100100000008A715B99C01000000000109023B00020100C032090400000152
:2020070003010100092111010001222D000705810308000109040100010300000009211142
:202027000100012215000705820308000105010906A101050719E029E715002501750195B4
:2020470008810295017508810195067508150025650507190029658100C0050C0901A101F1
:0F2067007510950426FF0319002AFF038100C09E
:0700A2009000D0E4F0A3F090
:2007CA009000D0E0FEA3E08E82F58322AC82AD83AEF0FFC007C006C005C004121D0DE582F0
:2007EA00D004D005D006D0076004758202228C828D838EF0EF121970E5826004758201220F
:20080A0075820022AF827E007D02BD080050378D82C007C006C005120457AC82D005D00694
:20082A00D007ECB5070AEE540F60028003ED4206EC7010EE54F0600280098D04ECC454F0AC
:20084A00FC42060D80C48E8222AF827E007D08ED70030208F91D8DF005F07B017C00800623
:20086A00EB2BFBEC33FCD5F0F78F017A00E95203EA5204EB4C604BE522601DED24D4FBE4D4
:20088A003400FCED24D4F582E43400F583E0FA0A8B828C83EAF0802AED24D4FBE43400FCBA
:2008AA008B828C83E0601BED24D4FBE43400FCED24D4F582E43400F583E0FA1A8B828C83C7
:2008CA00EAF0ED24D4FBE43400FC8B828C83E060067B017C0080047B007C008D048CF00559
:2008EA00F0EB800225E0D5F0FBFB4206020859758200C006120457AF82D006EFB506012228
:20090A008E0A75820002046CAF82758200C007120457AE82D0077D00E5236005EF4EFD80C5
:20092A00327F08EF602D1FEF24D4FBE43400FC8B828C83E060067B017C0080047B007C008E
:20094A008F048CF005F0EB800225E0D5F0FBFB420580D0EEB50501228D0A75820002046CFA
:20096A00AF82C00712080EAE82D007740F5EFD5306F0E4C4CEC4540F6ECE540FCE6ECE30A9
:20098A00E30244F0E5246006ED7003EE7008E5247003ED700122E524600280028D06E5247A
:2009AA0060068F057F0080047D007F008D0A8E8212046C120167E5828583F09000D0F0E5FD
:2009CA00F0A3F0228582251211B985822685832785F02874022526F9E43527FAAB28898295
:2009EA008A838BF0121F2DFB75F005A424B2F9740035F0FA89298A2A752B00752C0274017E
:200A0A002526F52DE43527F52E85282F852D82852E83852FF0121F2D704EE525704A852687
:200A2A00828527838528F0121F2D603C74012529F9E4352AFAAF2B8B82C007C002C0011228
:200A4A000F2CA882AB83ADF0FED001D002D00789828A838FF0E8121ECCA3EB121ECCA3ED4F
:200A6A00121ECCA3EE121ECC74012529FDE4352AFEAF2B8D828E838FF0121F2DF9A3121F3E
:200A8A002DFAA3121F2DFBA3121F2D89828A838BF0C007C006C0051207D6AC82D005D0067B
:200AAA00D007EC70678D828E838FF0121F2DFDA3121F2DFEA3121F2DFFA3121F2DFB8526F2
:200ACA00828527838528F0121F2DF53C8D828E838FF0EB120D00852982852A83852BF01272
:200AEA001F2DFF5307FB8526828527838528F0121F2D25E025E0FE4207852982852A8385BD
:200B0A002BF0EF121ECC752C02020BCBE4FEFF7401B5252EC004120167AB82AD83D0047409
:200B2A00032526F8E43527F9AA28888289838AF0121F2DF8A3121F2DF9EBC398FEED99FFB1
:200B4A0080497402B52544C0041211C0AA82AB83ADF0D00474032AFAE43BFB8A828B838D60
:200B6A00F0121F2DFAA3121F2DFB74032526F8E43527F9AD28888289838DF0121F2DF8A3D3
:200B8A00121F2DF9EAC398FEEB99FFBC0102801BBC022E8525528E538F54852982852A83C6
:200BAA00852BF0121D2585822C80168525448E458F46852982852A83852BF0121ABE8582E5
:200BCA002C1204867402B5250DE52C30E2051212EE80031211D8E52C5403600D1211B2ADD7
:200BEA0082AE83AFF0E4121ECCE52C30E1030211F6E52C30E011852D82852E83852FF074D7
:200C0A0001121ECC0213A2221211ABE582700D1211A4E58260067582010209CE1211ABE52A
:200C2A0082601A1211A4E58260087582021209CE80EA1211D87582001209CE80DF22E58209
:200C4A00FF75F005A424B2FD740035F0FE8D318E32753300E5306003020CE2853182853296
:200C6A00838533F0121F2DFB30E26D74012531F539E43532F53A85333B853982853A8385FA
:200C8A003BF0121F2DFBA3121F2DFCA3121F2DFDA3121F2DFE753C008B828C838DF0EE1282
:200CAA000D008531828532838533F0121F2DFE5306FB8531828532838533F0EE121ECC85CA
:200CCA003982853A83853BF0E4121ECCA3121ECCA3121ECCA3021ECC8530347535008F3658
:200CEA00120167E5828583F0F53785F03890003475F040021292AC82AD83AEF0FF7800793D
:200D0A00008E02741F5FFBB8000BB90008BAFF05BB1F02805CE4F8F9FA741F5FFB6030E521
:200D2A003C60178B82C007C006C005C0041210B6D004D005D006D00780158B82C007C00676
:200D4A00C005C0041210CFD004D005D006D00779008E028A00E8FB6018853C228B82C00714
:200D6A00C006C005C004120853D004D005D006D0078D0189038C028A3DA83D5300E0790057
:200D8A00B8C005B90002800BB8E005B90002803F020E32E53C700122741F553DF9BB00029E
:200DAA00800BBB01028011BB020280112289821210997582000210AD89820210E989F005DD
:200DCA00F07401800225E0D5F0FBF5820210AD5302078B007900E828F8E933F9E828F8E9B9
:200DEA0033F9530418E4FDFEFFEDC423CCC423541F6CCC541FCC6CCCFDEEC42354E04DFD77
:200E0A00EFC423CEC423541F6ECE541FCE6ECEEC48FEED49FFBA0133E53C7002FEFF8E5F3F
:200E2A008F60758200020498EB6008853C228B82120853E53D6009853C24853D8212096A3B
:200E4A00E53C7007F523F58202091222AC82AD83AEF0FF753C018C828D838EF0EFC007C063
:200E6A0006C005C004120D00120486D004D005D006D007753C008C828D838EF0EF120D006D
:200E8A00020486E582FF75F005A424B2FD740035F0FC7E008D828C838EF0121F2DFBF95321
:200EAA000102E4A2E713C913C9E9B53E1D74015BB53E012274FE5B453E8D828C838EF01223
:200ECA001ECC853E118F820214235303FDE53E25E042038D828C838EF0EB021ECC7F06EF59
:200EEA0060141FEF75F005A424B2F582740035F0F583E4F080E97F08EF600F1FEF24D4F5DD
:200F0A0082E43400F583E4F080EE1219511213B60201D41201E390000512014D1215A90288
:020F2A000C12A7
:0A00A9009000D2E4F09000D304F0C0
:200F2C00AF827DFF7EFF8E0B8E0CEF2F25E0FF7A028A82C007C006C005C00212113CE582C4
:200F4C00D002D005D006D0077003020FDCEA75F018A42485F8741F35F0F9EF28F582E439C9
:200F6C00F583E493F50DA3E493F50EA3E493F50FA3E493F510C4540FF879007B007C00B8D3
:200F8C000E2CB90029BB0026BC00238D038E04E4BBFF04BCFF0104FBA90BAC0CE4B9FF04DE
:200FAC00BCFF01046B6007900000E4F5F0228D038E04BBFF0BBCFF08AB0FAC108B058C06D6
:200FCC00AB0BAC0CBBFF09BCFF06850D0B850E0C8A041AEC601A8D038E04BBFF06BCFF0329
:200FEC00020F3DAB0BAC0CBBFF06BCFF03020F3D8D048E07BCFF07BFFF047D007E00AB0B02
:20100C00AC0CBBFF08BCFF05E4F50BF50C8E048D077D007E00A80BA90CE4FAFBE84205E92B
:20102C004206EA4207EB42048D828E838FF0EC227F027E02EE60198E82C007C00612113CE7
:20104C00E582D006D00760038F82221E8E0780E4758200227F007E00BE0300502B8EF005EE
:20106C00F07C017D008006EC2CFCED33FDD5F0F79000D3E0FB7A005204EA5205EC4D60031C
:20108C008F82220E8E0780D07582002222AF828FF005F07401800225E0D5F0FBF5820211F8
:2010AC0000E5829000D2F0021098AF828FF005F07401800225E0D5F0FBFF9000D2E04FF0E0
:2010CC00021098AF828FF005F07401800225E0D5F0FBF4FF9000D2E05FF0021098AF82C0DA
:2010EC0007121171E582D00760058F820210B68F820210CFE5829000D3F0021098AF828FB7
:20110C00F005F07401800225E0D5F0FBFF9000D3E04FF0021098AF828FF005F0740180025B
:20112C0025E0D5F0FBF4FF9000D3E05FF0021098AF829000D3E0FE9000D2E042068FF0052F
:20114C00F07F017D008006EF2FFFED33FDD5F0F77C00EE5207EC5205EF4DB40100B39202DC
:20116C00E433F58222AF829000D3E0FE9000D2E042068FF005F07F017D008006EF2FFFEDB6
:18118C0033FDD5F0F77C00EE5207EC5205E4BF0004BD000104F5822257
:2011A4009000AFE0F582229000B0E0F582229000B175F0002290000F75F000229000AFE0AD
:2011C40075F005A4240FFEE43400FF7D008E828F838DF0229000B0E07001229000AFE0FFA6
:2011E4000F9000AFEFF09000B0E0FF1F9000B0EFF0229000AFE07001227F009000AFE0FEF1
:201204007D009000B0E07B002EFEEB3DFD1EBEFF011D8F037C00C3EB9EEC64808DF063F06E
:201224008095F05052EF75F005A4240FFDE43400FE7A0074012BF55FE43CF560900005C088
:2012440007C006C005C002121EE7AB82AC83D002D005D006EB240FFBEC3400FC8B5F8C603B
:201264007561007562057563008D828E838AF0121E77D0070F80849000B0E0FF9000AFE077
:20128400FE1EEE2F9000B0F09000AFE4F022AD82AE83AFF09000AFE0FC7B009000B0E0F9FE
:2012A4007A00E92CF55FEA3BF560900005C007C006C005121EE7AB82AC83D005D006D007F1
:2012C400EB240FFBEC3400FC7A008D5F8E608F617562058A638B828C838AF0121E779000FB
:2012E400B0E0FF0F9000B0EFF0229000B0E07001227F009000B0E0FE7D001EBEFF011D8FB6
:20130400037C00C3EB9EEC64808DF063F08095F040030213969000AFE0FE7D00EB2EF55F64
:20132400EC3DF560900005C007C004C003121EE7AD82AE83D003D004ED240FFDEE3400FEED
:201344007A009000AFE0F87900EB28FBEC39FC74012BF55FE43CF560900005C006C005C007
:2013640002121EE7AB82AC83D002D005D006EB240FFBEC3400FC8B5F8C60756100756205BA
:201384007563008D828E838AF0121E77D0070F0212F79000B0E0FF1F9000B0EFF022900030
:2013A400B0E0FF9000AFE02F9000B0F09000AFE4F0229000AFE4F09000B0F09000B1F02251
:2013C400AF82900000E0FE7D001EBEFF011D8F037C00C3EB9EEC64808DF063F08095F050A5
:2013E40032EF2F2401FEE43400FD7C008F030BEB2B2401FBE43400FA8B5F8A608C61756268
:20140400028C638E828D838CF0C007121E77D0070F80AF900000E0FF1F900000EFF0228514
:201424008212E51170030214F17E02EE60701EEE75F004A4FCADF024DFF582ED341FF58382
:20144400E493FB74075B2402FBEC24DFFCED341FFD74022CFCE43DFDEB60D01BEB2CF58277
:20146400E43DF583E493FAB512EE851213751400900000E0FE04900000F0EE2E2401FEE461
:201484003400FD7C00755F138C607561407562028C638E828D838CF0121E770215A97E0069
:2014A400900000E0FDC3EE9D503AEE2EFD2401FBE43400FC8B828C83A3E0FCBCFF0280219D
:2014C400ED2401F582E43400F583E0FD7530018D82C006120C48D0068E82C0061213C4D0CC
:2014E400060E80BC753001851282020C487E007D00900000E0FCC3ED9C40030215A0ED2DBC
:20150400FC2401F582E43400F583E0FBB51202800302159AEC2401FCE43400FB8C828B838B
:20152400A3E0FCBCFF03D38001C392038E82C0061213C4D0063003030215A97C007B00C379
:20154400EB9E5047EB2B2401FAE43400FF8A828F83A3E0FFBFFF030C802EEC2C2401F5824C
:20156400E43400F583E0FF7530018F82C006C004C003120C48D003D0048C82C004C0031240
:2015840013C4D003D004D0060B80B4753001851282120C4880060D8D060214F57530008534
:2015A4001282020C48900000E0FFEF602E1FEF2F2401FEE43400FD0EBE00010D8E047E00F2
:2015C4008C828D838EF0121F2DFBBBFF0280DB8C828D838EF0E4121ECC80CF75150074FE34
:2015E40025155003021907751600E51575F004A4FCADF024DFF582ED341FF583E493FB74F5
:20160400075B2402F517EC24DFFCED341FFD74022CFCE43DFD7A00C3EA951740030216A779
:20162400EA2CF582E43DF583E493F97800900000E0FFC3E89F5068E828FF2401F582E43464
:2016440000F583E0FBE9B50353E51575F003A4F51985F01A2409F582E51A3400F583E0FB72
:20166400BB02028023EF2401FFE43400FB8F828B83A3E0FFBFFF11E5192409F582E51A3499
:2016840000F583E4F00219028A078FF005F07401800225E0D5F0FBFF4216800308808E0A22
:2016A40002161BC204E51575F003A4FDAFF02409F582EF3400F583E0FCBC01028003021715
:2016C40049E516700FED2409F582EF3400F583E4F0021902C007C005120167AB82AC83D0F4
:2016E40005D007ED2409F9EF3400FA89828A83A3E0F9A3E0FAEBC399FBEC9AFCE51575F0A6
:2017040004A424DFF9741F35F0FA89828A83A3E493F97A00C3EB99EC9A4003021902851701
:20172400F005F07B017C008006EB2BFBEC33FCD5F0F71BBBFF011CA9167A00E9B50306EA9E
:20174400B50402D204ED2409F582EF3400F583E0FCBC0203021812E51575F004A424DFFBFA
:20176400741F35F0FC74022BFBE43CFC751800C3E518951740030218128518F005F0780196
:2017840079008006E828F8E933F9D5F0F7AA167E00EA5200EE5201E849606EE5182BF58214
:2017A400E43CF583E493FE7A00900000E0F9C3EA995056EA2AF92401F582E43400F583E030
:2017C400F8EEB5004130041AC003C004E92401F8E43400FC88828C83A374FFF0D004D00374
:2017E4008027C003C004E92401F8E43400F908B800010988828983E0FC0C88828983ECF0E6
:20180400D004D00380030A80A00518021773ED2409FCEF3400FE8C828E83E07039E516608D
:2018240035ED2409F582EF3400F5837401F0ED2409FCEF3400FE0CBC00010EC006C0041234
:201844000167AA82AB83D004D0068C828E83EAF0EBA3F0021902ED2409F582EF3400F58358
:20186400E0FEBE011E30041BED2409F582EF3400F5837402F0AE15232EF582753001120C79
:2018840048807BED2409F582EF3400F583E0FEBE026CE51575F004A424DFF582741F35F092
:2018A400F583E49330E30CE4B5160474018001E4FE802F8517F005F07B017C008006EB2BC7
:2018C400FBEC33FCD5F0F71BBBFF011CA9167A00E9B50307EAB50403D38001C3B39205E474
:2018E40033FEEE6019ED2409F582EF3400F583E4F0AF1574042FF582753000120C48051545
:201904000215E27F00900000E0FEC3EF9E503DEF2FFE2401FCE43400FD8C828D83A3E0FD10
:20192400BDFF030F80DFED7023EE2401F582E43400F583E0FE7530018E82C007120C48D04B
:20194400078F82C0071213C4D00780B9227F02EF60141FEF75F003A42409F582740035F04E
:0C196400F583E4F080E9900000E4F0223C
:20197000AC82AD83AEF0FFEE7003EF6006EC7007ED7004C2068002D206A206E433F5822268
:20199000AD82AE83AFF074032DFDE43EFEAB3F7C00755F028C608B828C83C007C006C005E1
:2019B000C004C003121F49A982AA83D003D004D005D006D007E92DFDEA3EFE8D828E838FAD
:2019D000F0121F2DFFEB30E007EFC4540FF58222740F5FF5822275820022E5826055854381
:2019F0005F7560038540828541838542F01219E6AF8274012540FCE43541FDAE428C828D5F
:201A1000838EF0121F2DA3121F2DA3121F2DFAA3121F2DFB780079008C828D838EF0E812D8
:201A30001ECCA3E9121ECCA3EA121ECCA3EB121ECC805385435F756002854082854183852B
:201A500042F01219E6AF8274012540FCE43541FDAE428C828D838EF0121F2DF8A3121F2DF2
:201A7000F9A3121F2DA3121F2D7A007B008C828D838EF0E8121ECCA3E9121ECCA3EA121EA1
:201A9000CCA3EB121ECCEF6021AD40AE41AF428D828E838FF0121F2DFC4304048D828E833F
:201AB0008FF0EC121ECC7582022275820122AD82AE83AFF0C007C006C0051211B9858247FF
:201AD00085834885F049D005D006D00774012DF8E43EF98F04888289838CF0121F2DA31279
:201AF0001F2DA3121F2DA3121F2D54E0C4035407F8E4E875F006A424CDF54A741F35F0F582
:201B10004BC007C006C0051211B285824C85834D85F04ED005D006D007E5454546604B8571
:201B30004C82854D83854EF0121F2D703D854A82854B83A3E493F9A3E493FA49602CA84517
:201B5000AC46C3E899EC9A4021854A82854B83E493FC74015CFBBB0103EB8001E4F5828D62
:201B7000408E418F428C430219EAE4B54402800A7402B54402801C021D09854A82854B835F
:201B9000E493F55F7560018D828E838FF01219E6021D09C007C006C0051211C085824F85AC
:201BB000835085F051D005D006D00774022547F8E43548F9AC49888289838CF0121F2DF8E9
:201BD0007402254FFAE43550FBAC518A828B838CF0121F2DFCE8B50403D38001C3920785E7
:201BF0004C82854D83854EF0121F2DFB6003021D09200703021CA2854F828550838551F0AD
:201C1000121F2D6003021D09854A82854B83E493F55F7560028D828E838FF0C007C006C099
:201C3000051219E6E582D005D006D007603274012DFBE43EF98F028B8289838AF0121F2DC9
:201C5000F8A3121F2DF9A3121F2DA3121F2D7A007B008B3C888289838AF0EB120D00802E7C
:201C700074012DFBE43EF98F028B8289838AF0121F2DF8A3121F2DF9A3121F2DA3121F2D26
:201C90007A007B00888289838AF0EB120E5675820622A94AAA4B7B808C3F89828A838BF0EE
:201CB000C007C006C005121990AC82D005D006D007EC30E044854F828550838551F0121F72
:201CD0002DFB8C01530104E4A2E713C913C9A2E713C913C9FA8B007B00E8B5011CEBB50225
:1D1CF00018530402854A82854B83E493F5438D408E418F428C820219EA758200227A
:0600B3009000DC7401F076
:201D0D00FC7D007E007F00E4BCE00ABD0007BE0004BF000104F58222AD82AE83AFF0C0070D
:201D2D00C006C0051211B985825585835685F057D005D006D007E5527012855582855683B4
:201D4D008557F0121F2D7004758202220DBD00010E8D828E838FF0121F2DF55BA3121F2D96
:201D6D00F55CA3121F2DF55DA3121F2DF55EA95DC4C9C4540F69C9540FC969C953010FAB06
:201D8D005CAC5D53040F9000DCE0FAC3995077A953AA54C3E99BEA9C506C7402B552028080
:201DAD000475820022C007C006C0051211C085825885835985F05AD005D006D00774022518
:201DCD0055F8E43556F9AC57888289838CF0121F2DF874022558FAE43559FBAC5A8A828B5F
:201DED00838CF0121F2DFAE8B5021B855882855983855AF0121F2D7003F582229000DCE080
:201E0D0004F0758202228D828E838FF0121F2DFC7B009000DCE07A002CFCEA3BFB1CBCFF4D
:201E2D00011BEC2CFCEB33FBEC2CFCEB33FBEC24D3F582EB341FF583E493F9A3E493FAA3E8
:201E4D00E493FBA3E493FC8D828E838FF0E9121ECCA3EA121ECCA3EB121ECCA3EC121ECCCB
:0A1E6D009000DC7401F07582012280
:06007800E478FFF6D8FD5C
:201E7700AD82AE83AFF08D648E658F66855F67856068856169A862A9638803890418B8FF8F
:201E97000119EB4C60258567828568838569F0121F2DFCA38582678583688D828E838FF01F
:151EB700EC121ECCA3AD82AE8380CE8564828565838566F02208
:200056007900E94400601B7A00902076780175A000E493F2A308B8000205A0D9F4DAF275BA
:02007600A0FFE9
:1B1ECC0020F71130F6138883A88220F509F6A8837583002280FEF280F5F02215
:1D1EE700E582855FF0A4C582C0F08560F0A4D0F025F0C583855FF0A42583F58322B8
:201F04007A10E4FBFCE58225E0F582E58333F583EB33FBEC33FCEB955FF5F0EC9560400643
:091F2400FCABF0438201DADD227E
:20007E007800E84400600A790175A000E4F309D8FC7800E84400600C7900900001E4F0A380
:04009E00D8FCD9FAB7
:0D004900758169121F81E582600302004687
:1C1F2D0020F71430F6148883A88220F507E6A88375830022E280F7E49322E022C3
:201F4900C2D5E58330E70DD2D5E4C39582F582E49583F583E56030E70DB2D5E4C3955FF585
:181F69005FE49560F560121F0430D50BE4C39582F582E49583F58322C3
:041F81007582002243
:00000001FF
